:1000000004308A00412C00000A108A100A1182076D
:1000100028340C3401340634D6376C3ABA1232170D
:1000200035330000C135E936BA12321736330001D4
:100030003B3084008313000803192C280130F8009A
:10004000F701F70B2128F80B20284A30F700F70BAF
:1000500027282A28800B1E280800421831288611DC
:1000600032288615831686118312C2183928061184
:100070003A28061583160611831242194128861064
:1000800042288614831686108312C2194928061046
:100090004A2806148316061000008312861683165B
:1000A0008612522883128612831686128312080043
:1000B000C301831686150030831286190130C304EC
:1000C000831606150030831206190130F70003105D
:1000D000F70D7708C3048316861400308312861840
:1000E0000130F700F70DF70DFC30F7057708C30472
:1000F000831606140030831206180130F700F70D3E
:10010000F70DF70DF830F7057708C3044308F8003A
:10011000080083168612061208118312061283162F
:100120000612861506158614061483120815831602
:1001300008110000831286168316861200008312AF
:1001400058207808C2008612831686120000831297
:100150008616831686120000831258207808C10084
:1001600086128316861286110611861006108312D7
:10017000420EF700F030F70577084104F8007808E0
:10018000C100C11FC52883169128BF08031DCA28B6
:100190000612CB28061683160612000083120811D9
:1001A00083160811000083128612831686128312AA
:1001B000400EC1000F30C1054108C2002D2040088B
:1001C0000F39C100C2002D200800831686110611C8
:1001D0008610061086120612081183120612831664
:1001E00006128312081183160811831286128316D1
:1001F00086120F308312BB0018200130AD002D088D
:10020000033C031C0B290330C2002D200530BB002A
:100210001820AD0AFF280230C2002D200530BB0097
:100220001820AD012D08033C031C1F292D080420B4
:10023000AE00BF012E08C0008920AD0A12298A1124
:100240000A12512C8E30F7002E08F8002D08F90004
:10025000FA01F808031D36297908F800F901083079
:10026000F702F808031D3629F7013E290310F81B91
:100270003D29F90DF80DF7033629F8138A110A12F2
:10028000832C3A080319B129C2003E080319B12989
:10029000C207031852297F30C202031CB129031977
:1002A000B12956298130C2070318B1294208F70045
:1002B000F801F901FA013B08C600C6173C08C50061
:1002C0003D08C4001830C200C301441C7F29410806
:1002D000FA07031C7129F90A031D7129F80A031989
:1002E000C3174008F907031C7829F80A0319C31734
:1002F0003F08BC00BC173C08F8070318C317C30D20
:10030000F80CF90CFA0CC60CC50CC40C0310C20B8B
:1003100064290130F7070318B129F81B9629C60D87
:10032000FA0DF90DF80DF7030319B129C61FA72916
:10033000FA0A031DA729F90A031DA729F80A031DB4
:10034000A729F80CF90CFA0CF70A0319B1293B0894
:10035000C3003F08C306C31FAF29F817B529F81318
:10036000B529F701F801F901FA0108002D08031970
:100370007B2AB900310803197B2AB902031CC5295D
:100380007F30B90703187B2ACB298130B902031CBF
:100390007B2A03197B2A3908F700F801F901FA01D1
:1003A000B8012E08B700B7172F08B6003008B500FF
:1003B0001930B9003408B5020318EE290130B6022D
:1003C0000318EE29B7020318EE29B8020318EE2924
:1003D000B80AB70AB60A3408B507202A3308B602A5
:1003E0000318092A0130B7020318092AB8020318B2
:1003F000092AB80AB70A3308B6073408B507031C38
:10040000202AB60A031D202AB70A031D202AB80A8B
:10041000202A32088038B70203181F2A0130B80298
:1004200003181F2AB80A32088038B7073308B607FE
:10043000031CFD29B70A031DFD29B80AFD297A14FA
:10044000B90B232A2E2A0310B50DB60DB70DB80D22
:100450000310FA0DF90DF80DBA0DDA293A1C362AF7
:100460000310F80CF90CFA0CBA0C392AF70303192B
:100470007B2ABA1B622A0310B50DB60DB70DB80D55
:100480003408B50203184E2A0130B60203184E2A6A
:10049000B70203184E2AB802031C712A3308B602A9
:1004A0000318592A0130B7020318592AB802031C4D
:1004B000712A32088038B7020318622A0130B80264
:1004C000031C712AFA0A031D712AF90A031D712AF5
:1004D000F80A031D712AF70A03197B2AF80CF90C94
:1004E000FA0C2E08B9003208B906B91F792AF81794
:1004F0007F2AF8137F2AF701F801F901FA010800B1
:100500003C0B832A862A4030BD00872ABD0101307A
:100510003B02BD073D088038BE00BF013E08C00059
:10052000892008003A08073A0319A02A0B3A031950
:10053000A52A063A0319AD2A023A0319B32AB82AA2
:100540000130BB00BC008022BD2ABF010130C000C9
:1005500089200230BB001820BD2A0130BB000230C8
:10056000BC008022BD2ABF011030C0008920BD2AF6
:100570000130BF003A08C000892008000B08AE0017
:100580008B13831603178C170C140000000003183C
:10059000F02A83120C087F390313AF0003170D08EC
:1005A0000313B00003170F080313B1002F08BA009C
:1005B0009222300803178D000313310803178F00B0
:1005C00083168C170C140000000083120313AD0B6C
:1005D000EA2AED2A83160317F02A0F2B8316031736
:1005E00083120C0D0E0D7F390313AF0003170D0896
:1005F0000313B00003170F080313B1002F08BA004C
:100600009222300803178D000313310803178F005F
:100610008D0A03198F0A03100313AD0BC12AAE1BF9
:100620008B1708008318172B423084008313F701BF
:10063000F801F901FA01C201C301C401C501410871
:1006400040043F043E040319552B2030C60003101C
:10065000BA0DBB0DBC0DBD0DC20DC30DC40DC50D36
:1006600041084502031D3E2B40084402031D3E2B5A
:100670003F084302031D3E2B3E084202031C4F2B42
:100680003E08C2023F08031C3F0FC3024008031C80
:10069000400FC4024108031C410FC5020314F70DAB
:1006A000F80DF90DFA0DC60B272B42088000840ABD
:1006B00043088000840A44088000840A45088000BA
:1006C00008000408B2003108B4000319802B300878
:1006D000BD002F08BC002E08BB002D08BA00C101C8
:1006E000C0012030BF008230BE0041217A08B00036
:1006F0007908AF007808AE007708AD00B40B672B1F
:100700003008BD002F08BC002E08BB002D08BA0021
:100710003A08B63CBA00FA013B08BE00BB1703100A
:10072000BB0CBC0CBD0CFA0CF90CF80CF70CBA0B9A
:100730008F2BBE1FA62BF709F809F909FA09F70A4A
:100740000319F80A0319F90A0319FA0A7A08B0001A
:100750007908AF007808AE007708AD00B01FBD2B58
:10076000B203B216AD09AE09AF09B009AD0A03195B
:10077000AE0A0319AF0A0319B00A3B30B9009A3028
:10078000B800CA30B700B6010A30B4003108031906
:10079000B20A83142D30840083133008BD002F0863
:1007A000BC002E08BB002D08BA003908C10038086B
:1007B000C0003708BF003608BE0012237808F708CB
:1007C000031DF52B310A34020319F52B32080319E6
:1007D000F72B0F3934020319EF2B0318272CB21B08
:1007E000272C321BF72B2030232C2030B205B21ED1
:1007F000052CB2123108031DB2037708B2002D3068
:10080000BA0092223208F700B20131083402031D07
:10081000132C7708B2002E30BA0092223208F7006B
:100820002030B20500303030B21E232CB212310815
:10083000031DB2037708B2002D30BA0092223208AD
:10084000F700B2013030F7077708BA009222831020
:100850003908BD003808BC003708BB003608BA00AC
:10086000C101C001BF010A30BE0012237A08B900DD
:100870007908B8007808B7007708B600B40BC92B20
:10088000080083161F149F141F159F1107309C002A
:1008900083131F308305FF308500003086008312EC
:1008A000E5280530BB00182083161F109F141F1564
:1008B0009F151F1783121F139F1783169F178312ED
:1008C0001F140030F8001F08C73978049F008316F2
:1008D0009D010A308312BB0018200030F8001F0869
:1008E000C73978049F001F150230BB0018201F1560
:1008F0001F19782C1E08FA0083161E088312AD00FB
:100900001E08AE0022297A08A4007908A3007808FE
:10091000A2007708A1002408BD002308BC0022081B
:10092000BB002108BA00C1014030C0001C30BF002C
:100930008B30BE0041217A08A8007908A70078080A
:10094000A6007708A5002808B0002708AF002608F1
:10095000AE002508AD00B4018030B3007F30B20096
:100960008830B100B6217A08A8007908A700780875
:10097000A6007708A5002808B0002708AF002608C1
:10098000AE002508AD00B401B3017A30B200873063
:10099000B100B6217A08A8007908A7007808A60057
:1009A0007708A5000A30BB0018202808B0002708E7
:1009B000AF002608AE002508AD00B4014030B300FA
:1009C0001C30B2008D30B100B6217A08AC00790835
:1009D000AB007808AA007708A9000130BB00BC0072
:1009E00080220C3003178D0000308F00031005307B
:1009F0000313AD00BE22893084002808B000270808
:100A0000AF002608AE002508AD000530B100612317
:100A10006430BB0018205630BA0092226430BB000C
:100A200018200130BB000230BC00802212300317B6
:100A30008D0000308F00031005300313AD00BE227F
:100A4000893084002C08B0002B08AF002A08AE00C3
:100A50002908AD000630B10061236430BB001820C6
:100A60004130BA0092226430BB0018208316692CF2
:020A7000630021
:02400E00393F38
:00000001FF
;PIC16F877A
;CRC=141D  CREATED="25-Eki-18 20:40"
